S12300009028030BCC15630BCE15CC3BCB380C00AF150311B0150F306F280E306F280F3C3B
S1230020820B8115A7190A0B271203306E28A71DCA21032131333428000B2E1203312A285E
S1230040000B2D1203312A28750B2C1203312A28300B2B1203343828AB190335AC19033580
S1230060AD190335AE193828AB1DAC1DAD1DAE1DA8190335A919070B291203314128640B1D
S1230080281203305028A81DA91D3316B41531335028341605080331502847224322313FBD
S12300A086316128AA190A0B2A1203306328AA1D3134632847224322313FB138B61D313810
S12300C06328AA1D313C86356D2831376D28FF0B351203346E28B5196E28B51D8F224B3090
S12300E08B28CB308B284B3CDA2086327928B1337D2886368B28B1338B28AB1DAC1DAD1DD7
S1230100AE1DA21D8636A2192216A31523130330B13F0334B13B30118315AF112F110D0088
S12301208A224E223133A428000B2E120331A228000B2D120331A228750B2C120331A22822
S1230140300B2B120334A828C80B3512033092288E3F0E3CCB3CCC3F083CFF0B8D15FF0BF2
S12301608B15FF0BC6150D3C8F3C8E38090B89170B0000000000891D8E3C8F3C8A224E2206
S1230180B21D280B32120334D0288F22010B9415000B9515000B9615000B5E22B219C128D6
S12301A03316B41586359228050B34120334A82892280C0043222616A115040B21120334C1
S12301C00229000B8A15E80B211F03348A198215EC28F228F828FE283131EF283E22010B49
S12301E0A6150229B131F5283922020BA61502293132FB283422030BA6150229B1320129EB
S12302002F22A61D0C00A519320B25120330C929A51D31309829B1304829040B34120330A5
S12302201429B13CB61DC929040B341203342029000B3617033120293139010BB615C929EE
S1230240030B341203342C293616010803312C29B139020BB615C929020B3412033438293D
S12302603616020803313829313A030BB615C929000B34170331442936160308033144296A
S1230280B13A040BB615C929B13C320BA515C9293416A015040B201203347C29010B8A1506
S12302A0550B201F03348A19821559295B2966297129B13A8629A01DB136A019201CA01513
S12302C020130330B13E0334B13A8629A01D3136A019201CA01520130330313E0334313AAF
S12302E08629A01DB135A019201CA01520130330B13D0334B1398629A01D3135A019201CC2
S1230300A01520130330313D03343139040B341203348C293139C929030B341203349229CC
S1230320B139C929020B34120334C929313AC929000B34170331A129B13A313AB139313906
S1230340C929020B34120334AA29B13E313AB1393139C929030B34120334B329B13E313EE5
S1230360B1393139C929040B34120334BC29B13E313EB13D3139C929B13E313EB13DA01D11
S12303803135A019201CA01520130330313D033431390C003130D429B71DB81DB91DBA1D14
S12303A0BB1DBC1DBD1D2E2A43220D3C46389F1D06349F191F1601080331E029BD1DE2291C
S12303C0010BBD153A163D100331E729EB29B91D3D16BA152E2A030B39120334F129B9197A
S12303E02E2A3D1637100331F629FF29000B3D170331FC29BB1D2C2AB81DBC192C2A000B9B
S12304003D170331272A000B3C1703352C2A1E0B3B120330212A3C1601080331102A1F2A0D
S12304209F1D31379F191F1C9F151F130330313F0334313B31331E2A4B221F2A4722BC1DD1
S12304402C2AFF0B3B1203342C2ABB192C2AFF0B381203342C2AB8193D16B7150C00063C15
S1230460463C0639463D0C00063D463D0638463C0C00863CC63C0638463C0C00063C463C42
S12304808638C63C0C000D38070BC6170C000D3A0B3A463A0C00463E063E0C000D3C463899
S12304A0463AC63AC6396C230120010B9415000B9515000B9615000B5E220C009A15161677
S12304C0991515169815141697151716181719171A170335892A130B9B15020B9C151B1657
S12304E09D151C169E15FF0B9B1F03309C1B1D161E1703357D2A00006F2AFF0B971FFF0B09
S12305000330981FFF0B0330991FFF0B03309A1F652A0C008E3F182310238E3B0C00083817
S1230520B31D0D0B241203340F2B020B8A159C0B241F03348A198215A92A052BA92AF32A2E
S1230540FE2AE12AEC2ACF2ADA2ABD2AC82AB02AB62AE10B881E1C0B88170B0BA4150F2B5D
S12305600C0BA41588360F2BB31D0F2BE10B881E1A0B8817090BA4150F2B0A0BA4158832C0
S12305800F2B0A0B331203340F2B0A0BB3150F2BE10B881E180B8817070BA4150F2B080BCF
S12305A0A41588320F2B080B331203340F2B080BB3150F2BE10B881E160B8817050BA41591
S12305C00F2B060BA41588320F2B060B331203340F2B060BB3150F2BE10B881E140B8817F5
S12305E0030BA4150F2B040BA41588320F2B040B331203340F2B040BB3150F2BE10B881ED2
S1230600120B8817010BA4150F2B020BA41588320F2B020B331203340F2B020BB3150C00BD
S1230620861DC61DFF0B8D15FF0B8B158C1D0C003F0B84152F0BBF15841B801DBF1A1C2BD8
S1230640BF1D0C000C0A000A760A030A330A000A010A000A770A030A340A000A010A000ABA
S1230660720A030A2B0A000A040A000A780A030A350A000A010A000A790A030A360A000ACF
S1230680010A000A7A0A030A370A000A010A000A7B0A030A380A000A010A000A7C0A030ACA
S12306A0390A000A010A000A7D0A030A3A0A000A010A000A7E0A030A3B0A000A010A000AE4
S12306C07F0A030A3C0A000A010A000A800A030A3D0A000A010A000A050BC115820B811515
S12306E00E380C00000A000A000A000A000A000A000A000A000A000A000A000A000A000A18
S1050700000AE9
S3050000806218
S903FFFFFE
