S12300008728030BCC15630BCE15CC3BCB380C00AC150311AD150F3068280E3068280F3C58
S1230020820B8115A6190A0B261203305828A61DCA21F9202E332828750B29120331222829
S1230040300B281203342A28A8190335A9192A28A81DA91D2E333328000B32170331332867
S123006051224C222E3F86314B28A7190A0B271203304D28A71D2E344D28B11DB21D5122A3
S12300802E3DAE3D2E3EAE3E2E3FAE38B41DAA1DAB1D2E384D28A71D2E3C863557282E3753
S12300A05728FF0B331203345828B3195828B31D99222E3362283116321203306828311660
S12300C0B215682832163112033068283116B2154B308228CB3082284B3CCD2086327228D9
S12300E0AE33762886368228AE338228A81DA91DA31D8636A3192316A41524130330AE3F80
S12301000334AE3B2D118315AC112C110D0094225822C80BB3152E339528750B2912033106
S12301209328300B281203349928C80B331203308B288E3F0E3CCB3CCC3F083CFF0B8D157C
S1230140FF0B8B15FF0BC6150D3CF90B8D1E8F3C8E38090B89170B0000000000891D8E3C54
S12301608F3C942258228635BA28060BB115060BB215BC28B11DB21D640B9415000B9515E6
S1230180000B9615000B68222F3886358B28010B3212033099288B280C002F34D028F828BD
S12301A04C222516A215040B22120334F828000B8A15DE0B221F03348A198215E228E828E2
S12301C0EE28F4282E31E5284722010BA515F828AE31EB284222020BA515F8282E32F12878
S12301E03D22030BA515F828AE32F7283822A51D0C00B519320B35120330C929B51D2E30E6
S12302009129AE303D29030B321203340929AE3CC929030B321203301529000B34170331F8
S123022015292E39010BB415C929040B3212033021293416010803312129AE39020BB415F0
S1230240C929050B321203302D293416020803312D292E3A030BB415C929060B3212033034
S123026039293416030803313929AE3A040BB415C929AE3C320BB515C9293216A115070B88
S1230280211203347C29010B8A154A0B211F03348A19821572297229722967295C2951293A
S12302A05129A11DAE36A119211CA11521130330AE3E0334AE3A7C29A11D2E36A119211C41
S12302C0A115211303302E3E03342E3A7C29A11DAE35A119211CA11521130330AE3D033476
S12302E0AE397C29A11D2E35A119211CA115211303302E3D03342E39030B32120330812901
S12303002E39040B321203308629AE39050B321203308B292E3A060B32120330C929AE3A51
S1230320C9292E33C529050B321203309C29AE3A2E3AAE392E39C929040B32120330A52948
S1230340AE3E2E3AAE392E39C929030B32120330AE29AE3E2E3EAE392E39C929020B3212C0
S12303600330B729AE3E2E3EAE3D2E39C929AE3E2E3EAE3DA11D2E35A119211CA115211385
S123038003302E3D03342E39C9292E3DAE3D2E3EAE3E0C002E30D429B71DB81DB91DBA1DC0
S12303A0BB1DBC1DBD1D372A4C220D3C4638A01D0634A019201601080331E029BD1DE52904
S12303C0010BBD15A81DA91DB31D3A163D100331EA29EE29B91D3D16BA15372A030B391233
S12303E00334F429B919372A3D1637100331F929022A000B3D170331FF29BB1D352AB81D8F
S1230400BC19352A000B3D170331302A000B3C170335352A1E0B3B1203302A2A3C1601086A
S12304200331132A282AA01D2E37A019201CA015201303302E3F03342E3B2E33232A552291
S1230440320BB515282A51222E3DAE3D2E3EAE3EBC1D352AFF0B3B120334352ABB19352AC6
S1230460FF0B38120334352AB8193D16B7150C00063C463C0639463D0C00063D463D0638FC
S1230480463C0C00863CC63C0638463C0C00063C463C8638C63C0C00070B8D17070BC61705
S12304A00C000D3A0B3A463A0C00463E063E0C000D3C4638463AC63AC639C0230120010BEA
S12304C09415000B9515000B9615000B68220C009B1516169A1515169915141698151816FA
S12304E019171A171B170335932A130B9C15020B9D151C169E151D169F15FF0B9C1F03301E
S12305009D1B1E161F170335872A0000792AFF0B981FFF0B0330991FFF0B03309A1FFF0B73
S123052003309B1F6F2A0C008E3F54234C238E3B0C000838361697150F0B17120334082BB8
S1230540020B8A15A70B171F03348A198215B62AE72ABD2AEC2AC42AF12ACB2AF62AD22A8A
S1230560FB2AD92A002BE02A052BB62AE10B881E1E0B8817010BB615082BE10B881E1C0BED
S12305808817030BB615082BE10B881E1A0B8817050BB615082BE10B881E180B8817070BE2
S12305A0B615082BE10B881E160B8817090BB615082BE10B881E140B88170B0BB615082B71
S12305C0E10B881E120B88170D0BB615082B020BB615060BB015082B040BB615050BB01523
S12305E0082B060BB615040BB015082B080BB615030BB015082B0A0BB615020BB015082B18
S12306000C0BB615010BB015082B0E0BB615B01D3616020803310D2B2A2B3616040803319C
S1230620122B2A2B361606080331172B2A2B3616080803311C2B2A2B36160A080331212BF5
S12306402A2B36160C080331262B2A2B36160E0803314B2B88323B2B3016311203304B2BA9
S1230660000B30170335392B31169715171BB1154B2BB11D4B2B3016311203344B2B301667
S123068006080331442B492B311697151719B1154B2B060BB1150C00861DC61DFF0B8D15BD
S12306A0FF0B8B158C1D0C003F0B84152F0BBF15841B801DBF1A582BBF1D0C00100A000A42
S12306C0CA0A030A300A000A010A000ACB0A030A310A000A010A000ACC0A030A320A000A77
S12306E0010A000AC60A030A280A000A020A000ACD0A030A330A000A010A000ACE0A030A8D
S1230700340A000A010A000AC80A030A2A0A000A020A000ACF0A030A350A000A010A000A01
S1230720D00A030A360A000A010A000AD10A030A370A000A010A000AD20A030A380A000AF2
S1230740010A000AD30A030A390A000A010A000AD40A030A3A0A000A010A000AD50A030AFA
S12307603B0A000A010A000AD60A030A3C0A000A010A000AD70A030A3D0A000A010A000A6B
S1230780050BC115820B81150E380C00000A000A000A000A000A000A000A000A000A000A96
S11307A0000A000A000A000A000A000A000A000AF5
S3050000806218
S903FFFFFE
