S10900003328000A000A87
S1130010AE150311AF150F3029280E3029280F3CD7
S1230020820B8115AB190A0B2B1203302828AB1D4C20AC190335AD19070B2D12033122283A
S1230040640B2C1203302828AC1DAD1D3216B315F6204B302E28CB302E284B3C2F11831532
S1230060AE112E110D00F120B620AE2036280C00AE2030304B28B0304B28A9190335AA19A1
S1230080010B2A1203314628F40B291203304B28A91DAA1D4B280C00A11D0D3C46389F1D45
S12300A006349F191F16010803315828A11D5A28010BA1152316211003315F286328A21DE7
S12300C02116A3159228030B221203346928A21992282116271003316E287728000B2117DA
S12300E003317428A41D9028A51DA6199028000B211703318B28000B2617033590281E0BEF
S1230100241203308528A61D9028FF0B241203349028A4199028FF0B251203349028A519B8
S12301202116A7150C000C00050BC115820B81150E380C00063C463C0639463D0C00063D80
S1230140463D0638463C0C00863CC63C0638463C0C00063C463C8638C63C0C000D38070BD5
S1230160C6170C000D3E0C000B3E0C000D3C4638463AC63A9420463E010B9415000B9515FD
S1230180000B9615000BC5200C009A151616991515169815141697151716181719171A17B5
S12301A00335F028130B9B15020B9C151B169D151C169E15FF0B9B1F03309C1B1D161E1781
S12301C00335E4280000D628FF0B971FFF0B0330981FFF0B0330991FFF0B03309A1FCC2846
S12301E00C008E3F692161218E3B0C000D0B201203346029010B8A15010B201F03348A1967
S123020082150E295A290E294C2953293E294529302937292229292915291B29E10B881E22
S12302201C0B88170B0BA01560290C0BA01588366029B21D6029E10B881E1A0B8817090BCB
S1230240A01560290A0BA01588366029010BB2156029E10B881E180B8817070BA01560294B
S1230260080BA01588366029020BB2156029E10B881E160B8817050BA0156029060BA015A8
S123028088366029030BB2156029E10B881E140B8817030BA0156029040BA015883660290E
S12302A0040BB2156029E10B881E120B8817010BA0156029020BA01588366029050BB21563
S12302C00C00861DC61DFF0B8D15FF0B8B158C1D0C003F0B84152F0BBF15841B801DBF1A77
S12302E06D29BF1D0C00020A000A010A000A320A000A010A000A020A000A330A000A010A8E
S1050300000AED
S3050000806218
S903FFFFFE
