S12300008B28030BCC15630BCE15CC3BCB380C00AE150311AF150F306C280E306C280F3C48
S1230020820B8115A7190A0B271203306B28A71DD721F72030332828750B2B120331222804
S1230040300B2A1203342A28AA190335AB192A28AA1DAB1DA819C80B281203303F28A81DCF
S1230060303339283216331203303F283216B3153F283316321203303F283216B315303380
S12300804828000B3317033148285E225922303F86315E28A9190A0B291203306028A91DB9
S12300A0303460285E22303DB03D303EB03E303FB038B51DAC1DAD1D30386028A91D303C3C
S12300C086356A2830376A28FF0B341203346B28B4196B28B41DA6224B308628CB308628F1
S12300E04B3CCE2086327628B0337A2886368628B0338628AA1DAB1DA31D8636A3192316B1
S1230100A41524130330B03F0334B03B2F118315AE112E110D00A122652230339728750BD8
S12301202B1203319528300B2A1203349B28C80B341203308D288E3FAA1DAB1DB41D0E3CA4
S1230140CB3CCC3F083CFF0B8D15FF0B8B15FF0BC6150D3CF90B8D1E8F3C8E38090B8917CD
S12301600B0000000000891D8E3C8F3CA1226522060BB215060BB315280B9415000B9515A9
S1230180000B9615000B75223216B31586358D28010B331203309B288D280C0059222616C4
S12301A0A215040B22120334F628000B8A15DC0B221F03348A198215E028E628EC28F22865
S12301C03031E3285422010BA615F628B031E9284F22020BA615F6283032EF284A22030B18
S12301E0A615F628B032F5284522A61D0C00B619320B36120330D629B61D30309E29B0308D
S12302003B29030B331203340729B03CD629030B331203301329000B3517033113293039DF
S1230220010BB515D629040B331203301F293516010803311F29B039020BB515D629050B77
S1230240331203302B293516020803312B29303A030BB515D629060B33120330372935167C
S1230260030803313729B03A040BB515D629B03C320BB615D6293316A115070B21120334AB
S12302807A29010B8A15480B211F03348A198215702970297A2965295A294F294F29A11D74
S12302A0B036A119211CA11521130330B03E0334B03A7A29A11D3036A119211CA115211389
S12302C00330303E0334303A7A29A11DB035A119211CA11521130330B03D0334B0397A29CE
S12302E0A11D3035A119211CA11521130330303D03343039030B331203307F293039040B10
S1230300331203308429B039050B331203308929303A060B33120330D629AC190335AD19DC
S12303208C0B2D1203319629A00B2C120330D629B03AFF0BAC1F0330AD1BD6293033D229BE
S1230340050B33120330A929B03A303AB0393039D629040B33120330B229B03E303AB039F7
S12303603039D629030B33120330BB29B03E303EB0393039D629020B33120330C429B03E9A
S1230380303EB03D3039D629B03E303EB03DA11D3035A119211CA11521130330303D033472
S12303A03039D629303DB03D303EB03E0C003030E129B71DB81DB91DBA1DBB1DBC1DBD1DC4
S12303C0442A59220D3C4638A01D0634A019201601080331ED29BD1DF229010BBD15AA1D96
S12303E0AB1DB41D3A163D100331F729FB29B91D3D16BA15442A030B39120334012AB91958
S1230400442A3D1637100331062A0F2A000B3D1703310C2ABB1D422AB81DBC19422A000B05
S12304203D1703313D2A000B3C170335422A1E0B3B120330372A3C1601080331202A352A85
S1230440A01D3037A019201CA01520130330303F0334303B3033302A6222320BB615352AAB
S12304605E22303DB03D303EB03EBC1D422AFF0B3B120334422ABB19422AFF0B3812033438
S1230480422AB8193D16B7150C00063C463C0639463D0C00063D463D0638463C0C00863C0A
S12304A0C63C0638463C0C00063C463C8638C63C0C00070B8D17070BC6170C000D3A0B3A9D
S12304C0463A0C00463E063E0C000D3C4638463AC63AC639C5230120010B9415000B9515FF
S12304E0000B9615000B75220C009B1516169A151516991514169815181619171A171B1798
S12305000335A02A130B9C15020B9D151C169E151D169F15FF0B9C1F03309D1B1E161F1761
S12305200335942A0000862AFF0B981FFF0B0330991FFF0B03309A1FFF0B03309B1F7C2AC8
S12305400C008E3F5F2357238E3B0C0008380F0B25120334132B020B8A15B20B251F033403
S12305608A198215C12AF22AC82AF72ACF2AFC2AD62A012BDD2A062BE42A0B2BEB2A102B0C
S1230580C12AE10B881E1E0B8817010BA515132BE10B881E1C0B8817030BA515132BE10BC4
S12305A0881E1A0B8817050BA515132BE10B881E180B8817070BA515132BE10B881E160BB4
S12305C08817090BA515132BE10B881E140B88170B0BA515132BE10B881E120B88170D0BA8
S12305E0A515132B020BA515060BB115132B040BA515050BB115132B060BA515040BB115A6
S1230600132B080BA515030BB115132B0A0BA515020BB115132B0C0BA515010BB115132BF8
S12306200E0BA515B11D251602080331182B352B2516040803311D2B352B25160608033159
S1230640222B352B251608080331272B352B25160A0803312C2B352B25160C080331312BA1
S1230660352B25160E080331562B8832462B311632120330562B000B31170335442B321664
S12306809715171BB215562BB21D562B321631120330562B3116060803314F2B542B3216D7
S12306A097151719B215562B060BB2150C00861DC61DFF0B8D15FF0B8B158C1D0C003F0B53
S12306C084152F0BBF15841B801DBF1A632BBF1D0C000F0A000ACF0A030A310A000A010A8B
S12306E0000AD00A030A320A000A010A000AD10A030A330A000A010A000ACB0A030A2A0A50
S1230700000A020A000AD20A030A340A000A010A000AD30A030A350A000A010A000ACD0A50
S1230720030A2C0A000A020A000AD40A030A360A000A010A000AD50A030A370A000A010AC6
S1230740000AD60A030A380A000A010A000AD70A030A390A000A010A000AD80A030A3A0ABA
S1230760000A010A000AD90A030A3B0A000A010A000ADA0A030A3C0A000A010A000ADB0AC7
S1230780030A3D0A000A010A000A050BC115820B81150E380C00000A000A000A000A000A55
S11B07A0000A000A000A000A000A000A000A000A000A000A000A000AC5
S3050000806218
S903FFFFFE
