S10500001028C2
S1130010A6150311A71527118315A61126110D0086
S1230020CE20952093208D208D208820F40B9415010B9515000B9615000BA2208D20832033
S1230040F40B9415010B9515000B9615000BA2208D207E20F40B9415010B9515000B96155C
S1230060000BA2208D207920F40B9415010B9515000B9615000BA22014280C000D3C463879
S1230080A01D9F1D06349F191F16010803314B28010BA0154C28A01D221620100331512805
S12300A05528A11D2016A2157628030B211203345B28A119762820162410033160286B286A
S12300C0000B241703316628A31D7428000B2017033174287428000B201703357428FF0BEA
S12300E0231203347428A3192016A4150C000C000C00063C463C0639463D0C00063D463DCD
S12301000638463C0C00863CC63C0638463C0C00063C463C8638C63C0C000D38070BC617BB
S12301200C000D3E0C000B3E0C000D3C4638463AC63A010B9415000B9515000B9615000B91
S1230140A2200C009A151616991515169815141697151716181719171A170335CD28130B8E
S12301609B15020B9C151B169D151C169E15FF0B9B1F03309C1B1D161E170335C12800000E
S1230180B328FF0B971FFF0B0330981FFF0B0330991FFF0B03309A1FA9280C008E3FE22035
S12301A0DA20D4208E3B0C00E10B881E1C0B881708380C00861DC61DFF0B8D15FF0B8B15F8
S11B01C08C1D0C003F0B84152F0BBF15841B801DBF1AE628BF1D0C0072
S3050000806218
S903FFFFFE
