S12300008728030BCC15630BCE15CC3BCB380C00B7150311B8150F3066280E3066280F3C46
S1230020820B8115AF190A0B2F1203306528AF1DCB21042139333428000B361203312A283D
S1230040000B351203312A28750B341203312A28300B331203343828B3190335B419033558
S1230060B5190335B6193828B31DB41DB51DB61DB0190335B119070B311203314128640BD5
S1230080301203304728B01DB11D3B16BC1586315828B2190A0B321203305A28B21D39346F
S12300A05A2848224422393FB938BE1D39385A28B21D393C3934642839376428FF0B3D1221
S12300C003346528BD196528BD1D8F224B308228CB3082284B3CDB2086327028B933742846
S12300E086368228B9338228B31DB41DB51DB61DA31D8636A3192316A41524130330B93F2E
S12301000334B93B38118315B71137110D008A224F2239339B28000B361203319928040B0F
S1230120351203319928930B341203319928E00B331203349F28C80B3D12033089288E3FA5
S12301400E3CCB3CCC3FFF0B8D15FF0B8B15C61D010B8D1E8F3C8E38090B89170B000000FF
S12301600000F60B891E8E3C8F3CBA1D280B3A120334C5288F22010B9415000B9515000B9E
S12301809615000B5E22BA19B6283B16BC158635CD28050B3C1203349F288635D728A21DCD
S12301A00634A219221601080331D7289F288A224F2289280C0044222E16A115040B21128F
S12301C003340329000B8A15E90B211F03348A198215ED28F328F928FF283931F0283F220E
S12301E0010BAE150329B931F6283A22020BAE1503293932FC283522030BAE150329B932D2
S123020002293022AE1D0C00AD19320B2D120330CA29AD1D39309929B9304929040B3C1271
S123022003301529B93CBE1DCA29040B3C1203342129000B3E17033121293939010BBE1579
S1230240CA29030B3C1203342D293E16010803312D29B939020BBE15CA29020B3C12033480
S123026039293E16020803313929393A030BBE15CA29000B3C17033145293E16030803314A
S12302804529B93A040BBE15CA29B93C320BAD15CA293C16A015040B201203347D29010B0C
S12302A08A15560B201F03348A1982155A295C2967297229B93A8729A01DB936A019201C13
S12302C0A01520130330B93E0334B93A8729A01D3936A019201CA01520130330393E033444
S12302E0393A8729A01DB935A019201CA01520130330B93D0334B9398729A01D3935A01969
S1230300201CA01520130330393D03343939040B3C1203348D293939CA29030B3C12033421
S12303209329B939CA29020B3C120334CA29393ACA29000B3C170331A229B93A393AB93978
S12303403939CA29020B3C120334AB29B93E393AB9393939CA29030B3C120334B429B93EA6
S1230360393EB9393939CA29040B3C120334BD29B93E393EB93D3939CA29B93E393EB93D04
S1230380A01D3935A019201CA01520130330393D033439390C00A61D3930D629A71DA81D3F
S12303A0A91DAA1DAB1DAC1DA61D2F2A0D3C46389F1D06349F191F1601080331E129A61D4B
S12303C0E329010BA6152A1626100331E829EC29A91D2616AA152F2A030B29120334F229C1
S12303E0A9192F2A261627100331F729002A000B26170331FD29AB1D2D2AA81DAC192D2A4B
S1230400000B26170331282A000B2C1703352D2A1E0B2B120330222A2C1601080331112A8E
S1230420202A9F1D39379F191F1C9F151F130330393F0334393B39331F2A4C22202A48223C
S1230440AC1D2D2AFF0B2B1203342D2AAB192D2AFF0B281203342D2AA8192616A7150C00F1
S1230460063C463C0639463D0C00063D463D0638463C0C00863CC63C0638463C0C00063C82
S1230480463C8638C63C0C000D38070BC6170C000D3A0B3A463A0C000B3E463A0C000D3C94
S12304A04638463AC63A2C230120010B9415000B9515000B9615000B5E220C009A15161638
S12304C0991515169815141697151716181719171A170335892A130B9B15020B9C151B1657
S12304E09D151C169E15FF0B9B1F03309C1B1D161E1703357D2A00006F2AFF0B971FFF0B09
S12305000330981FFF0B0330991FFF0B03309A1F652A0C008E3F0223FA228E3B0C000D0B6C
S123052025120334F92A020B8A159A0B251F03348A198215A72AF32AA72AE52AEC2AD72A3B
S1230540DE2AC92AD02ABB2AC22AAE2AB42AE10B881E1C0B88170B0BA515F92A0C0BA515FF
S12305608836F92ABB1DF92AE10B881E1A0B8817090BA515F92A0A0BA5158836F92A010B98
S1230580BB15F92AE10B881E180B8817070BA515F92A080BA5158836F92A020BBB15F92A73
S12305A0E10B881E160B8817050BA515F92A060BA5158836F92A030BBB15F92AE10B881EB9
S12305C0140B8817030BA515F92A040BA5158836F92A040BBB15F92AE10B881E120B881774
S12305E0010BA515F92A020BA5158836F92A050BBB150C00861DC61DFF0B8D15FF0B8B159E
S12306008C1D0C003F0B84152F0BBF15841B801DBF1A062BBF1D0C00050A000A360A030A9C
S12306203B0A000A010A000A370A030A3C0A000A010A000A320A030A330A000A040A000AF7
S1230640380A030A3D0A000A010A000A390A030A3E0A000A010A000A050BC115820B811521
S11706600E380C00000A000A000A000A000A000A000A000AE0
S3050000806218
S903FFFFFE
