S12300008528030BCC15630BCE15CC3BCB380C00AD150311AE150F3066280E3066280F3C5C
S1230020820B8115A7190A0B271203305628A71DC821F7202F332828750B2A12033122282A
S1230040300B291203342A28A9190335AA192A28A91DAA1D2F333328000B33170331332860
S12300604F224A222F3F86314928A8190A0B281203304B28A81D2F344B284F222F3DAF3DEF
S12300802F3EAF3E2F3FAF38B51DAB1DAC1D2F384B28A81D2F3C863555282F375528FF0B1B
S12300A0341203345628B4195628B41D97222F33602832163312033066283216B315662896
S12300C033163212033066283216B3154B308028CB3080284B3CCB2086327028AF337428B8
S12300E086368028AF338028A91DAA1DA31D8636A3192316A41524130330AF3F0334AF3BDE
S12301002E118315AD112D110D0092225622C80BB4152F339328750B2A1203319128300B32
S1230120291203349728C80B3412033089288E3F0E3CCB3CCC3F083CFF0B8D15FF0B8B15CA
S1230140FF0BC6150D3CF90B8D1E8F3C8E38090B89170B0000000000891D8E3C8F3C92227F
S123016056228635B828060BB215060BB315BA28B21DB31D640B9415000B9515000B9615B3
S1230180000B6622303886358928010B33120330972889280C003034CE28F6284A222616D4
S12301A0A215040B22120334F628000B8A15DC0B221F03348A198215E028E628EC28F22865
S12301C02F31E3284522010BA615F628AF31E9284022020BA615F6282F32EF283B22030B48
S12301E0A615F628AF32F5283622A61D0C00B619320B36120330C729B61D2F308F29AF30BD
S12302003B29030B331203340729AF3CC729030B331203301329000B3517033113292F39F0
S1230220010BB515C729040B331203301F293516010803311F29AF39020BB515C729050B96
S1230240331203302B293516020803312B292F3A030BB515C729060B33120330372935168C
S1230260030803313729AF3A040BB515C729AF3C320BB615C7293316A115070B21120334CB
S12302807A29010B8A15480B211F03348A19821570297029702965295A294F294F29A11D7E
S12302A0AF36A119211CA11521130330AF3E0334AF3A7A29A11D2F36A119211CA11521138D
S12302C003302F3E03342F3A7A29A11DAF35A119211CA11521130330AF3D0334AF397A29D3
S12302E0A11D2F35A119211CA115211303302F3D03342F39030B331203307F292F39040B14
S1230300331203308429AF39050B3312033089292F3A060B33120330C729AF3AC7292F3375
S1230320C329050B331203309A29AF3A2F3AAF392F39C729040B33120330A329AF3E2F3A47
S1230340AF392F39C729030B33120330AC29AF3E2F3EAF392F39C729020B33120330B52901
S1230360AF3E2F3EAF3D2F39C729AF3E2F3EAF3DA11D2F35A119211CA115211303302F3DF3
S123038003342F39C7292F3DAF3D2F3EAF3E0C002F30D229B71DB81DB91DBA1DBB1DBC1DAB
S12303A0BD1D352A4A220D3C4638A01D0634A019201601080331DE29BD1DE329010BBD15DF
S12303C0A91DAA1DB41D3A163D100331E829EC29B91D3D16BA15352A030B39120334F229C2
S12303E0B919352A3D1637100331F729002A000B3D170331FD29BB1D332AB81DBC19332ABB
S1230400000B3D1703312E2A000B3C170335332A1E0B3B120330282A3C1601080331112A35
S1230420262AA01D2F37A019201CA015201303302F3F03342F3B2F33212A5322320BB615FC
S1230440262A4F222F3DAF3D2F3EAF3EBC1D332AFF0B3B120334332ABB19332AFF0B38127F
S12304600334332AB8193D16B7150C00063C463C0639463D0C00063D463D0638463C0C00C4
S1230480863CC63C0638463C0C00063C463C8638C63C0C00070B8D17070BC6170C000D3A40
S12304A00B3A463A0C00463E063E0C000D3C4638463AC63AC639B8230120010B9415000B91
S12304C09515000B9615000B66220C009B1516169A151516991514169815181619171A174F
S12304E01B170335912A130B9C15020B9D151C169E151D169F15FF0B9C1F03309D1B1E1695
S12305001F170335852A0000772AFF0B981FFF0B0330991FFF0B03309A1FFF0B03309B1F76
S12305206D2A0C008E3F52234A238E3B0C000838251697150F0B17120334062B020B8A1512
S1230540A50B171F03348A198215B42AE52ABB2AEA2AC22AEF2AC92AF42AD02AF92AD72A26
S1230560FE2ADE2A032BB42AE10B881E1E0B8817010BA515062BE10B881E1C0B8817030B84
S1230580A515062BE10B881E1A0B8817050BA515062BE10B881E180B8817070BA515062BCA
S12305A0E10B881E160B8817090BA515062BE10B881E140B88170B0BA515062BE10B881E03
S12305C0120B88170D0BA515062B020BA515060BB115062B040BA515050BB115062B060BA8
S12305E0A515040BB115062B080BA515030BB115062B0A0BA515020BB115062B0C0BA515C1
S1230600010BB115062B0E0BA515B11D2516020803310B2B282B251604080331102B282B27
S1230620251606080331152B282B2516080803311A2B282B25160A0803311F2B282B251636
S12306400C080331242B282B25160E080331492B8832392B311632120330492B000B311710
S12306600335372B32169715171BB215492BB21D492B311632120334492B31160608033179
S1230680422B472B321697151719B215492B060BB2150C00861DC61DFF0B8D15FF0B8B1558
S12306A08C1D0C003F0B84152F0BBF15841B801DBF1A562BBF1D0C000F0A000AC20A030A16
S12306C0310A000A010A000AC30A030A320A000A010A000AC40A030A330A000A010A000A50
S12306E0BE0A030A290A000A020A000AC50A030A340A000A010A000AC60A030A350A000A6F
S1230700010A000AC00A030A2B0A000A020A000AC70A030A360A000A010A000AC80A030A78
S1230720370A000A010A000AC90A030A380A000A010A000ACA0A030A390A000A010A000AD1
S1230740CB0A030A3A0A000A010A000ACC0A030A3B0A000A010A000ACD0A030A3C0A000AD5
S1230760010A000ACE0A030A3D0A000A010A000A050BC115820B81150E380C00000A000AA6
S1210780000A000A000A000A000A000A000A000A000A000A000A000A000A000A000AC1
S3050000806218
S903FFFFFE
