S12300009328030BCC15630BCE15CC3BCB380C00AE150311AF150F3072280E3072280F3C34
S1230020820B8115A6190A0B261203307128A61DDE210D2130333428000B2D1203312A2842
S1230040000B2C1203312A28750B2B1203312A28300B2A1203343828AA190335AB19033585
S1230060AC190335AD193828AA1DAB1DAC1DAD1DA7190335A819070B281203314128640B26
S1230080271203305028A71DA81D3216B31530335028331605080331502867226222303F86
S12300A086316428A9190A0B291203306628A91D303466286722303DB03D303EB03E303FC0
S12300C0B038B51D30386628A91D303C8635702830377028FF0B341203347128B419712862
S12300E0B41DAF224B308E28CB308E284B3CE42086327C28B033802886368E28B0338E28FB
S1230100AA1DAB1DAC1DAD1DA21D8636A2192216A31523130330B03F0334B03B2F11831541
S1230120AE112E110D00AA226E223033A728000B2D120331A528000B2C120331A528750B0D
S12301402B120331A528300B2A120334AB28C80B3412033095288E3FAA1DAB1DAC1DAD1DE4
S1230160B41D0E3CCB3CCC3F083CFF0B8D15FF0B8B15FF0BC6150D3CF90B8D1E8F3C8E3846
S1230180090B89170B0000000000891D8E3C8F3CAA226E22B11D280B31120334DA28AF22B7
S12301A0010B9415000B9515000B9615000B7E22B119CB283216B31586359528050B3312D6
S12301C00334AB2895280C0062222516A115040B211203340C29000B8A15F20B211F033407
S12301E08A198215F628FC28022908293031F9285D22010BA5150C29B031FF285822020B98
S1230200A5150C29303205295322030BA5150C29B0320B294E22A51D0C00B619320B361241
S12302200330DD29B61D3030A529B0305529040B331203301E29B03CB51DDD29040B33123C
S123024003342A29000B351703312A293039010BB515DD29030B33120334362935160108B0
S123026003313629B039020BB515DD29020B3312033442293516020803314229303A030BC1
S1230280B515DD29000B331703314E293516030803314E29B03A040BB515DD29B03C320B97
S12302A0AA15AB1DAC1DAD1DDD293316A015040B201203348929010B8A15620B201F033464
S12302C08A1982156629682973297E29B03A9329A01DB036A019201CA01520130330B03E36
S12302E00334B03A9329A01D3036A019201CA01520130330303E0334303A9329A01DB0357D
S1230300A019201CA01520130330B03D0334B0399329A01D3035A019201CA01520130330CE
S1230320303D03343039040B3312033499293039DD29030B331203349F29B039DD29020BA2
S123034033120334DD29303ADD293033D929000B33170331B029B03A303AB0393039DD2934
S1230360020B33120334B929B03E303AB0393039DD29030B33120334C229B03E303EB039A4
S12303803039DD29040B33120334CB29B03E303EB03D3039DD29B03E303EB03DA01D303548
S12303A0A019201CA01520130330303D03343039DD29303DB03D303EB03E0C003030E829E3
S12303C0B71DB81DB91DBA1DBB1DBC1DBD1D4D2A62220D3C46389F1D06349F191F1601088A
S12303E00331F429BD1DFB29010BBD15AA1DAB1DAC1DAD1DB41D3A163D100331002A042AB0
S1230400B91D3D16BA154D2A030B391203340A2AB9194D2A3D16371003310F2A182A000B08
S12304203D170331152ABB1D4B2AB81DBC194B2A000B3D170331462A000B3C1703354B2A77
S12304401E0B3B120330402A3C1601080331292A3E2A9F1D30379F191F1C9F151F1303300C
S1230460303F0334303B3033392A6B22320BB6153E2A6722303DB03D303EB03EBC1D4B2A17
S1230480FF0B3B1203344B2ABB194B2AFF0B381203344B2AB8193D16B7150C00063C463C4C
S12304A00639463D0C00063D463D0638463C0C00863CC63C0638463C0C00063C463C8638C6
S12304C0C63C0C00070B8D17070BC6170C000D3A0B3A463A0C00463E063E0C000D3C4638A6
S12304E0463AC63AC63992230120010B9415000B9515000B9615000B7E220C009A151616F1
S1230500991515169815141697151716181719171A170335A92A130B9B15020B9C151B16F6
S12305209D151C169E15FF0B9B1F03309C1B1D161E1703359D2A00008F2AFF0B971FFF0B88
S12305400330981FFF0B0330991FFF0B03309A1F852A0C008E3F382330238E3B0C00083877
S1230560B21D0D0B241203342F2B020B8A15BC0B241F03348A198215C92A252BC92A132B2E
S12305801E2B012B0C2BEF2AFA2ADD2AE82AD02AD62AE10B881E1C0B88170B0BA4152F2BDA
S12305A00C0BA41588362F2BB21D2F2BE10B881E1A0B8817090BA4152F2B0A0BA415883221
S12305C02F2B0A0B321203342F2B0A0BB2152F2BE10B881E180B8817070BA4152F2B080B11
S12305E0A41588322F2B080B321203342F2B080BB2152F2BE10B881E160B8817050BA415F3
S12306002F2B060BA41588322F2B060B321203342F2B060BB2152F2BE10B881E140B881736
S1230620030BA4152F2B040BA41588322F2B040B321203342F2B040BB2152F2BE10B881E13
S1230640120B8817010BA4152F2B020BA41588322F2B020B321203342F2B020BB2150C001F
S1230660861DC61DFF0B8D15FF0B8B158C1D0C003F0B84152F0BBF15841B801DBF1A3C2B78
S1230680BF1D0C000D0A000A9C0A030A320A000A010A000A9D0A030A330A000A010A000A2F
S12306A0980A030A2A0A000A040A000A9E0A030A340A000A010A000A9F0A030A350A000A20
S12306C0010A000AA00A030A360A000A010A000AA10A030A370A000A010A000AA20A030A1A
S12306E0380A000A010A000AA30A030A390A000A010A000AA40A030A3A0A000A010A000A5B
S1230700A50A030A3B0A000A010A000AA60A030A3C0A000A010A000AA70A030A3D0A000A84
S1230720010A000A050BC115820B81150E380C00000A000A000A000A000A000A000A000AF5
S1130740000A000A000A000A000A000A000A000A55
S3050000806218
S903FFFFFE
