S12300008B28030BCC15630BCE15CC3BCB380C00AE150311AF150F306C280E306C280F3C48
S1230020820B8115A7190A0B271203306B28A71DC821F72030332828750B2B120331222813
S1230040300B2A1203342A28AA190335AB192A28AA1DAB1DA819C80B281203303F28A81DCF
S1230060303339283216331203303F283216B3153F283316321203303F283216B315303380
S12300804828000B3317033148284F224A22303F86315E28A9190A0B291203306028A91DD7
S12300A0303460284F22303DB03D303EB03E303FB038B51DAC1DAD1D30386028A91D303C4B
S12300C086356A2830376A28FF0B341203346B28B4196B28B41D97224B308628CB30862800
S12300E04B3CCE2086327628B0337A2886368628B0338628AA1DAB1DA31D8636A3192316B1
S1230100A41524130330B03F0334B03B2F118315AE112E110D009222562230339728750BF6
S12301202B1203319528300B2A1203349B28C80B341203308D288E3FAA1DAB1DB41D0E3CA4
S1230140CB3CCC3F083CFF0B8D15FF0B8B15FF0BC6150D3CF90B8D1E8F3C8E38090B8917CD
S12301600B0000000000891D8E3C8F3C92225622060BB215060BB315280B9415000B9515C7
S1230180000B9615000B66223216B31586358D28010B331203309B288D280C004A222616E2
S12301A0A215040B22120334F628000B8A15DC0B221F03348A198215E028E628EC28F22865
S12301C03031E3284522010BA615F628B031E9284022020BA615F6283032EF283B22030B45
S12301E0A615F628B032F5283622A61D0C00B619320B36120330C729B61D30308F29B030BA
S12302003B29030B331203340729B03CC729030B331203301329000B3517033113293039EE
S1230220010BB515C729040B331203301F293516010803311F29B039020BB515C729050B95
S1230240331203302B293516020803312B29303A030BB515C729060B33120330372935168B
S1230260030803313729B03A040BB515C729B03C320BB615C7293316A115070B21120334C9
S12302807A29010B8A15480B211F03348A198215702970297A2965295A294F294F29A11D74
S12302A0B036A119211CA11521130330B03E0334B03A7A29A11D3036A119211CA115211389
S12302C00330303E0334303A7A29A11DB035A119211CA11521130330B03D0334B0397A29CE
S12302E0A11D3035A119211CA11521130330303D03343039030B331203307F293039040B10
S1230300331203308429B039050B331203308929303A060B33120330C729B03AC729303371
S1230320C329050B331203309A29B03A303AB0393039C729040B33120330A329B03E303A41
S1230340B0393039C729030B33120330AC29B03E303EB0393039C729020B33120330B529FB
S1230360B03E303EB03D3039C729B03E303EB03DA11D3035A119211CA11521130330303DEA
S123038003343039C729303DB03D303EB03E0C003030D229B71DB81DB91DBA1DBB1DBC1DA5
S12303A0BD1D352A4A220D3C4638A01D0634A019201601080331DE29BD1DE329010BBD15DF
S12303C0AA1DAB1DB41D3A163D100331E829EC29B91D3D16BA15352A030B39120334F229C0
S12303E0B919352A3D1637100331F729002A000B3D170331FD29BB1D332AB81DBC19332ABB
S1230400000B3D1703312E2A000B3C170335332A1E0B3B120330282A3C1601080331112A35
S1230420262AA01D3037A019201CA01520130330303F0334303B3033212A5322320BB615F8
S1230440262A4F22303DB03D303EB03EBC1D332AFF0B3B120334332ABB19332AFF0B38127B
S12304600334332AB8193D16B7150C00063C463C0639463D0C00063D463D0638463C0C00C4
S1230480863CC63C0638463C0C00063C463C8638C63C0C00070B8D17070BC6170C000D3A40
S12304A00B3A463A0C00463E063E0C000D3C4638463AC63AC639B6230120010B9415000B93
S12304C09515000B9615000B66220C009B1516169A151516991514169815181619171A174F
S12304E01B170335912A130B9C15020B9D151C169E151D169F15FF0B9C1F03309D1B1E1695
S12305001F170335852A0000772AFF0B981FFF0B0330991FFF0B03309A1FFF0B03309B1F76
S12305206D2A0C008E3F502348238E3B0C0008380F0B25120334042B020B8A15A30B251FFF
S123054003348A198215B22AE32AB92AE82AC02AED2AC72AF22ACE2AF72AD52AFC2ADC2AF6
S1230560012BB22AE10B881E1E0B8817010BA515042BE10B881E1C0B8817030BA515042BD1
S1230580E10B881E1A0B8817050BA515042BE10B881E180B8817070BA515042BE10B881E27
S12305A0160B8817090BA515042BE10B881E140B88170B0BA515042BE10B881E120B8817DD
S12305C00D0BA515042B020BA515060BB115042B040BA515050BB115042B060BA515040BA1
S12305E0B115042B080BA515030BB115042B0A0BA515020BB115042B0C0BA515010BB115BE
S1230600042B0E0BA515B11D251602080331092B262B2516040803310E2B262B25160608BA
S12306200331132B262B251608080331182B262B25160A0803311D2B262B25160C08033143
S1230640222B262B25160E080331472B8832372B311632120330472B000B31170335352BCA
S123066032169715171BB215472BB21D472B321631120330472B311606080331402B452B42
S1230680321697151719B215472B060BB2150C00861DC61DFF0B8D15FF0B8B158C1D0C0084
S12306A03F0B84152F0BBF15841B801DBF1A542BBF1D0C000F0A000AC00A030A310A000A8A
S12306C0010A000AC10A030A320A000A010A000AC20A030A330A000A010A000ABC0A030AC6
S12306E02A0A000A020A000AC30A030A340A000A010A000AC40A030A350A000A010A000A32
S1230700BE0A030A2C0A000A020A000AC50A030A360A000A010A000AC60A030A370A000A47
S1230720010A000AC70A030A380A000A010A000AC80A030A390A000A010A000AC90A030A40
S12307403A0A000A010A000ACA0A030A3B0A000A010A000ACB0A030A3C0A000A010A000AA6
S1230760CC0A030A3D0A000A010A000A050BC115820B81150E380C00000A000A000A000AA9
S11D0780000A000A000A000A000A000A000A000A000A000A000A000A000AD9
S3050000806218
S903FFFFFE
