S12300009328030BCC15630BCE15CC3BCB380C00AE150311AF150F3072280E3072280F3C34
S1230020820B8115A6190A0B261203307128A61DE4210D2130333428000B2D1203312A283C
S1230040000B2C1203312A28750B2B1203312A28300B2A1203343828AA190335AB19033585
S1230060AC190335AD193828AA1DAB1DAC1DAD1DA7190335A819070B281203314128640B26
S1230080271203305028A71DA81D3216B31530335028000B3317033150286D226822303F7B
S12300A086316428A9190A0B291203306628A91D303466286D22303DB03D303EB03E303FBA
S12300C0B038B51D30386628A91D303C8635702830377028FF0B341203347128B419712862
S12300E0B41DB5224B308E28CB308E284B3CE42086327C28B033802886368E28B0338E28F5
S1230100AA1DAB1DAC1DAD1DA21D8636A2192216A31523130330B03F0334B03B2F11831541
S1230120AE112E110D00B02274223033A728000B2D120331A528000B2C120331A528750B01
S12301402B120331A528300B2A120334AB28C80B3412033095288E3FAA1DAB1DAC1DAD1DE4
S1230160B41D0E3CCB3CCC3F083CFF0B8D15FF0B8B15FF0BC6150D3CF90B8D1E8F3C8E3846
S1230180090B89170B0000000000891D8E3C8F3CB0227422B11D280B31120334DA28B522A5
S12301A0010B9415000B9515000B9615000B8422B119CB283216B31586359528020B3312D3
S12301C00334AB2895280C0068222516A115040B211203340C29000B8A15F20B211F033401
S12301E08A198215F628FC28022908293031F9286322010BA5150C29B031FF285E22020B8C
S1230200A5150C29303205295922030BA5150C29B0320B295422A51D0C00B619320B361235
S12302200330E329B61D3030AB29B0305529030B331203301E29B03CB51DE329030B33122C
S123024003342A29000B351703312A293039010BB515E329040B33120334362935160108A9
S123026003313629B039020BB515E329050B3312033442293516020803314229303A030BB8
S1230280B515E329060B331203344E293516030803314E29B03A040BB515E329B03C320B87
S12302A0AA15AB1DAC1DAD1DE3293316A015020B201203308F29060B201203348F29FE0BB1
S12302C0A01F010B8A15680B201F03348A198215842979296E296C29B03A9929A01DB036C3
S12302E0A019201CA01520130330B03E0334B03A9929A01D3036A019201CA01520130330E6
S1230300303E0334303A9929A01DB035A019201CA01520130330B03D0334B0399929A01DCA
S12303203035A019201CA01520130330303D03343039030B331203349F293039E329040B61
S123034033120334A529B039E329050B33120334E329303AE3293033DF29060B3312033454
S1230360B629B03A303AB0393039E329050B33120334BF29B03E303AB0393039E329040BAF
S123038033120334C829B03E303EB0393039E329030B33120334D129B03E303EB03D3039FC
S12303A0E329B03E303EB03DA01D3035A019201CA01520130330303D03343039E329303D2C
S12303C0B03D303EB03E0C003030EE29B71DB81DB91DBA1DBB1DBC1DBD1D532A68220D3C1C
S12303E046389F1D06349F191F1601080331FA29BD1D012A010BBD15AA1DAB1DAC1DAD1D33
S1230400B41D3A163D100331062A0A2AB91D3D16BA15532A030B39120334102AB919532A44
S12304203D1637100331152A1E2A000B3D1703311B2ABB1D512AB81DBC19512A000B3D17B4
S123044003314C2A000B3C170335512A1E0B3B120330462A3C16010803312F2A442A9F1DB2
S123046030379F191F1C9F151F130330303F0334303B30333F2A7122320BB615442A6D2290
S1230480303DB03D303EB03EBC1D512AFF0B3B120334512ABB19512AFF0B38120334512AF0
S12304A0B8193D16B7150C00063C463C0639463D0C00063D463D0638463C0C00863CC63C54
S12304C00638463C0C00063C463C8638C63C0C00070B8D17070BC6170C000D3A0B3A463AFF
S12304E00C00463E063E0C000D3C4638463AC63AC63956230120010B9415000B9515000BC3
S12305009615000B84220C009A151616991515169815141697151716181719171A17033543
S1230520AF2A130B9B15020B9C151B169D151C169E15FF0B9B1F03309C1B1D161E1703353C
S1230540A32A0000952AFF0B971FFF0B0330981FFF0B0330991FFF0B03309A1F8B2A0C00AB
S12305608E3FFC22F4228E3B0C00083824160331BA2ACD2A241601080331BF2AD42A241680
S123058002080331C42AE22A241603080331C92AE92A24160E080331F32AE10B881E1E0B44
S12305A08817010BA415F32A020BA4158832DF2A331606080331F32A050BB315F32A060B7F
S12305C0B315F32AE10B881E1C0B8817030BA415F32A040BA4158832F32A050B33120330CF
S12305E0F32A040BB3150C00861DC61DFF0B8D15FF0B8B158C1D0C003F0B84152F0BBF1575
S1230600841B801DBF1A002BBF1D0C000D0A000A600A030A320A000A010A000A610A030A43
S1230620330A000A010A000A5C0A030A2A0A000A040A000A620A030A340A000A010A000ABB
S1230640630A030A350A000A010A000A640A030A360A000A010A000A650A030A370A000A1D
S1230660010A000A660A030A380A000A010A000A670A030A390A000A010A000A680A030A24
S12306803A0A000A010A000A690A030A3B0A000A010A000A6A0A030A3C0A000A010A000A29
S12306A06B0A030A3D0A000A010A000A050BC115820B81150E380C00000A000A000A000ACB
S11B06C0050A050A000A000A000A000A000A000A000A000A000A000A9C
S3050000806218
S903FFFFFE
