S12300009328030BCC15630BCE15CC3BCB380C00AF150311B0150F3072280E3072280F3C32
S1230020820B8115A7190A0B271203307128A71DD621082131333428000B2E1203312A284A
S1230040000B2D1203312A28750B2C1203312A28300B2B1203343828AB190335AC19033580
S1230060AD190335AE193828AB1DAC1DAD1DAE1DA8190335A919070B291203314128640B1D
S1230080281203305028A81DA91D3316B41531335028341605080331502858225422313F9B
S12300A086316428AA190A0B2A1203306628AA1D313466285822313DB13D313EB13E313FC6
S12300C0B138B61D31386628AA1D313C8635702831377028FF0B351203347128B51971285A
S12300E0B51DA0224B308E28CB308E284B3CDF2086327C28B133802886368E28B1338E280C
S1230100AB1DAC1DAD1DAE1DA21D8636A2192216A31523130330B13F0334B13B301183153A
S1230120AF112F110D009B225F223133A728000B2E120331A528000B2D120331A528750B26
S12301402C120331A528300B2B120334AB28C80B3512033095288E3F0E3CCB3CCC3F083C63
S1230160FF0B8D15FF0B8B15FF0BC6150D3CF90B8D1E8F3C8E38090B89170B0000000000F8
S1230180891D8E3C8F3C9B225F22B21D280B32120334D528A022010B9415000B9515000B31
S12301A09615000B6F22B219C6283316B41586359528050B34120334AB2895280C00542212
S12301C02616A115040B211203340729000B8A15ED0B211F03348A198215F128F728FD28D0
S12301E003293131F4284F22010BA6150729B131FA284A22020BA61507293132002945228E
S1230200030BA6150729B13206294022A61D0C00A519320B25120330D529A51D31309D2952
S1230220B1304D29040B341203301929B13CB61DD529040B341203342529000B3617033175
S123024025293139010BB615D529030B3412033431293616010803313129B139020BB61583
S1230260D529020B341203343D293616020803313D29313A030BB615D529000B34170331D0
S123028049293616030803314929B13A040BB615D529B13C320BA515D5293416A015040B38
S12302A0201203348129010B8A155A0B201F03348A1982155E2960296B297629B13A8B2985
S12302C0A01DB136A019201CA01520130330B13E0334B13A8B29A01D3136A019201CA015D3
S12302E020130330313E0334313A8B29A01DB135A019201CA01520130330B13D0334B1390D
S12303008B29A01D3135A019201CA01520130330313D03343139040B341203349129313933
S1230320D529030B341203349729B139D529020B34120334D529313AD5293133D129000B2E
S123034034170331A829B13A313AB1393139D529020B34120334B129B13E313AB13931398F
S1230360D529030B34120334BA29B13E313EB1393139D529040B34120334C329B13E313E87
S1230380B13D3139D529B13E313EB13DA01D3135A019201CA01520130330313D0334313975
S12303A0D529313DB13D313EB13E0C003130E029B71DB81DB91DBA1DBB1DBC1DBD1D3F2AC1
S12303C054220D3C46389F1D06349F191F1601080331EC29BD1DF329010BBD15AB1DAC1D42
S12303E0AD1DAE1DB51D3A163D100331F829FC29B91D3D16BA153F2A030B39120334022A5E
S1230400B9193F2A3D1637100331072A102A000B3D1703310D2ABB1D3D2AB81DBC193D2A4A
S1230420000B3D170331382A000B3C1703353D2A1E0B3B120330322A3C1601080331212AE7
S1230440302A9F1D31379F191F1C9F151F130330313F0334313B31332F2A5C22302A5822EC
S1230460BC1D3D2AFF0B3B1203343D2ABB193D2AFF0B381203343D2AB8193D16B7150C001A
S1230480063C463C0639463D0C00063D463D0638463C0C00863CC63C0638463C0C00063C62
S12304A0463C8638C63C0C000D38070BC6170C000D3A0B3A463A0C00463E063E0C000D3C75
S12304C04638463AC63AC6397D230120010B9415000B9515000B9615000B6F220C009A15E3
S12304E01616991515169815141697151716181719171A1703359A2A130B9B15020B9C152B
S12305001B169D151C169E15FF0B9B1F03309C1B1D161E1703358E2A0000802AFF0B971F9F
S1230520FF0B0330981FFF0B0330991FFF0B03309A1F762A0C008E3F292321238E3B0C00FA
S12305400838B31D0D0B24120334202B020B8A15AD0B241F03348A198215BA2A162BBA2A96
S1230560042B0F2BF22AFD2AE02AEB2ACE2AD92AC12AC72AE10B881E1C0B88170B0BA415AE
S1230580202B0C0BA4158836202BB31D202BE10B881E1A0B8817090BA415202B0A0BA415DC
S12305A08832202B0A0B33120334202B0A0BB315202BE10B881E180B8817070BA415202BC4
S12305C0080BA4158832202B080B33120334202B080BB315202BE10B881E160B8817050BE4
S12305E0A415202B060BA4158832202B060B33120334202B060BB315202BE10B881E140B77
S12306008817030BA415202B040BA4158832202B040B33120334202B040BB315202BE10B74
S1230620881E120B8817010BA415202B020BA4158832202B020B33120334202B020BB315D0
S12306400C00861DC61DFF0B8D15FF0B8B158C1D0C003F0B84152F0BBF15841B801DBF1AF3
S12306602D2BBF1D0C000C0A000A870A030A330A000A010A000A880A030A340A000A010A2A
S1230680000A830A030A2B0A000A040A000A890A030A350A000A010A000A8A0A030A360A7C
S12306A0000A010A000A8B0A030A370A000A010A000A8C0A030A380A000A010A000A8D0A7A
S12306C0030A390A000A010A000A8E0A030A3A0A000A010A000A8F0A030A3B0A000A010A9F
S12306E0000A900A030A3C0A000A010A000A910A030A3D0A000A010A000A050BC115820B5F
S123070081150E380C00000A000A000A000A000A000A000A000A000A000A000A000A000A6B
S1070720000A000ABD
S3050000806218
S903FFFFFE
