S12300008728030BCC15630BCE15CC3BCB380C00AC150311AD150F3068280E3068280F3C58
S1230020820B8115A6190A0B261203305828A61DD621F9202E332828750B2912033122281D
S1230040300B281203342A28A8190335A9192A28A81DA91D2E333328000B32170331332867
S12300605D2258222E3F86314B28A7190A0B271203304D28A71D2E344D28B11DB21D5D227F
S12300802E3DAE3D2E3EAE3E2E3FAE38B41DAA1DAB1D2E384D28A71D2E3C863557282E3753
S12300A05728FF0B331203345828B3195828B31DA5222E3362283116321203306828311654
S12300C0B215682832163112033068283116B2154B308228CB3082284B3CCD2086327228D9
S12300E0AE33762886368228AE338228A81DA91DA31D8636A3192316A41524130330AE3F80
S12301000334AE3B2D118315AC112C110D00A0226422C80BB3152E339528750B29120331EE
S12301209328300B281203349928C80B331203308B288E3F0E3CCB3CCC3F083CFF0B8D157C
S1230140FF0B8B15FF0BC6150D3CF90B8D1E8F3C8E38090B89170B0000000000891D8E3C54
S12301608F3CA02264228635BA28060BB115060BB215BC28B11DB21D640B9415000B9515CE
S1230180000B9615000B74222F3886358B28010B3212033099288B280C002F34D028F828B1
S12301A058222516A215040B22120334F828000B8A15DE0B221F03348A198215E228E828D6
S12301C0EE28F4282E31E5285322010BA515F828AE31EB284E22020BA515F8282E32F12860
S12301E04922030BA515F828AE32F7284422A51D0C00B519320B35120330D529B51D2E30C2
S12302009D29AE303D29030B321203340929AE3CD529030B321203301529000B34170331E0
S123022015292E39010BB415D529040B3212033021293416010803312129AE39020BB415E4
S1230240D529050B321203302D293416020803312D292E3A030BB415D529060B321203301C
S123026039293416030803313929AE3A040BB415D529AE3C320BB515D5293216A115070B70
S1230280211203347C29010B8A154A0B211F03348A19821572297229722967295C2951293A
S12302A05129A11DAE36A119211CA11521130330AE3E0334AE3A7C29A11D2E36A119211C41
S12302C0A115211303302E3E03342E3A7C29A11DAE35A119211CA11521130330AE3D033476
S12302E0AE397C29A11D2E35A119211CA115211303302E3D03342E39030B32120330812901
S12303002E39040B321203308629AE39050B321203308B292E3A060B32120330D5298C0B96
S12303202B1203319529A00B2A1203349B29AA190335AB19D529AE3AD5292E33D129050B9A
S123034032120330A829AE3A2E3AAE392E39D529040B32120330B129AE3E2E3AAE392E39B3
S1230360D529030B32120330BA29AE3E2E3EAE392E39D529020B32120330C329AE3E2E3EA7
S1230380AE3D2E39D529AE3E2E3EAE3DA11D2E35A119211CA115211303302E3D03342E3988
S12303A0D5292E3DAE3D2E3EAE3E0C002E30E029B71DB81DB91DBA1DBB1DBC1DBD1D432ACC
S12303C058220D3C4638A01D0634A019201601080331EC29BD1DF129010BBD15A81DA91D43
S12303E0B31D3A163D100331F629FA29B91D3D16BA15432A030B39120334002AB919432AB8
S12304003D1637100331052A0E2A000B3D1703310B2ABB1D412AB81DBC19412A000B3D1724
S123042003313C2A000B3C170335412A1E0B3B120330362A3C16010803311F2A342AA01D21
S12304402E37A019201CA015201303302E3F03342E3B2E332F2A6122320BB515342A5D22F5
S12304602E3DAE3D2E3EAE3EBC1D412AFF0B3B120334412ABB19412AFF0B38120334412A58
S1230480B8193D16B7150C00063C463C0639463D0C00063D463D0638463C0C00863CC63C74
S12304A00638463C0C00063C463C8638C63C0C00070B8D17070BC6170C000D3A0B3A463A1F
S12304C00C00463E063E0C000D3C4638463AC63AC639CC230120010B9415000B9515000B6D
S12304E09615000B74220C009B1516169A151516991514169815181619171A171B1703356C
S12305009F2A130B9C15020B9D151C169E151D169F15FF0B9C1F03309D1B1E161F17033562
S1230520932A0000852AFF0B981FFF0B0330991FFF0B03309A1FFF0B03309B1F7B2A0C00F7
S12305408E3F602358238E3B0C000838361697150F0B17120334142B020B8A15B30B171F66
S123056003348A198215C22AF32AC92AF82AD02AFD2AD72A022BDE2A072BE52A0C2BEC2A03
S1230580112BC22AE10B881E1E0B8817010BB615142BE10B881E1C0B8817030BB615142B4F
S12305A0E10B881E1A0B8817050BB615142BE10B881E180B8817070BB615142BE10B881EC5
S12305C0160B8817090BB615142BE10B881E140B88170B0BB615142BE10B881E120B88177B
S12305E00D0BB615142B020BB615060BB015142B040BB615050BB015142B060BB615040B0F
S1230600B015142B080BB615030BB015142B0A0BB615020BB015142B0C0BB615010BB0153E
S1230620142B0E0BB615B01D361602080331192B362B3616040803311E2B362B3616060807
S12306400331232B362B361608080331282B362B36160A0803312D2B362B36160C08033190
S1230660322B362B36160E080331572B8832472B301631120330572B000B30170335452B3C
S123068031169715171BB115572BB11D572B301631120334572B301606080331502B552BD4
S12306A0311697151719B115572B060BB1150C00861DC61DFF0B8D15FF0B8B158C1D0C0057
S12306C03F0B84152F0BBF15841B801DBF1A642BBF1D0C00100A000AD60A030A300A000A44
S12306E0010A000AD70A030A310A000A010A000AD80A030A320A000A010A000AD20A030A66
S1230700280A000A020A000AD90A030A330A000A010A000ADA0A030A340A000A010A000AE9
S1230720D40A030A2A0A000A020A000ADB0A030A350A000A010A000ADC0A030A360A000AE9
S1230740010A000ADD0A030A370A000A010A000ADE0A030A380A000A010A000ADF0A030AE0
S1230760390A000A010A000AE00A030A3A0A000A010A000AE10A030A3B0A000A010A000A5D
S1230780E20A030A3C0A000A010A000AE30A030A3D0A000A010A000A050BC115820B81158E
S12307A00E380C00000A000A000A000A000A000A000A000A000A000A000A000A000A000A57
S10B07C0000A000A000A000A05
S3050000806218
S903FFFFFE
